{
  "contractName": "CampaignFactory",
  "abi": [
    {
      "inputs": [],
      "stateMutability": "nonpayable",
      "type": "constructor"
    },
    {
      "inputs": [
        {
          "internalType": "uint256",
          "name": "",
          "type": "uint256"
        }
      ],
      "name": "deployedCampaign",
      "outputs": [
        {
          "internalType": "address",
          "name": "",
          "type": "address"
        }
      ],
      "stateMutability": "view",
      "type": "function",
      "constant": true
    },
    {
      "inputs": [
        {
          "internalType": "uint256",
          "name": "minContribution",
          "type": "uint256"
        }
      ],
      "name": "createCampaign",
      "outputs": [],
      "stateMutability": "nonpayable",
      "type": "function"
    },
    {
      "inputs": [],
      "name": "getDeployedCampaigns",
      "outputs": [
        {
          "internalType": "address[]",
          "name": "",
          "type": "address[]"
        }
      ],
      "stateMutability": "view",
      "type": "function",
      "constant": true
    }
  ],
  "bytecode": "0x608060405234801561001057600080fd5b5061181d806100206000396000f3fe608060405234801561001057600080fd5b50600436106100415760003560e01c80634acb9d4f14610046578063a3303a7514610064578063b7ccb9ab14610080575b600080fd5b61004e6100b0565b60405161005b919061031b565b60405180910390f35b61007e60048036038101906100799190610378565b61013e565b005b61009a60048036038101906100959190610378565b6101df565b6040516100a791906103b4565b60405180910390f35b6060600080548060200260200160405190810160405280929190818152602001828054801561013457602002820191906000526020600020905b8160009054906101000a900473ffffffffffffffffffffffffffffffffffffffff1673ffffffffffffffffffffffffffffffffffffffff16815260200190600101908083116100ea575b5050505050905090565b6000338260405161014e9061021e565b6101599291906103de565b604051809103906000f080158015610175573d6000803e3d6000fd5b5090506000819080600181540180825580915050600190039060005260206000200160009091909190916101000a81548173ffffffffffffffffffffffffffffffffffffffff021916908373ffffffffffffffffffffffffffffffffffffffff1602179055505050565b600081815481106101ef57600080fd5b906000526020600020016000915054906101000a900473ffffffffffffffffffffffffffffffffffffffff1681565b6113e08061040883390190565b600081519050919050565b600082825260208201905092915050565b6000819050602082019050919050565b600073ffffffffffffffffffffffffffffffffffffffff82169050919050565b600061028282610257565b9050919050565b61029281610277565b82525050565b60006102a48383610289565b60208301905092915050565b6000602082019050919050565b60006102c88261022b565b6102d28185610236565b93506102dd83610247565b8060005b8381101561030e5781516102f58882610298565b9750610300836102b0565b9250506001810190506102e1565b5085935050505092915050565b6000602082019050818103600083015261033581846102bd565b905092915050565b600080fd5b6000819050919050565b61035581610342565b811461036057600080fd5b50565b6000813590506103728161034c565b92915050565b60006020828403121561038e5761038d61033d565b5b600061039c84828501610363565b91505092915050565b6103ae81610277565b82525050565b60006020820190506103c960008301846103a5565b92915050565b6103d881610342565b82525050565b60006040820190506103f360008301856103a5565b61040060208301846103cf565b939250505056fe60806040523480156200001157600080fd5b50604051620013e0380380620013e083398181016040528101906200003791906200012b565b816000806101000a81548173ffffffffffffffffffffffffffffffffffffffff021916908373ffffffffffffffffffffffffffffffffffffffff16021790555080600181905550505062000172565b600080fd5b600073ffffffffffffffffffffffffffffffffffffffff82169050919050565b6000620000b8826200008b565b9050919050565b620000ca81620000ab565b8114620000d657600080fd5b50565b600081519050620000ea81620000bf565b92915050565b6000819050919050565b6200010581620000f0565b81146200011157600080fd5b50565b6000815190506200012581620000fa565b92915050565b6000806040838503121562000145576200014462000086565b5b60006200015585828601620000d9565b9250506020620001688582860162000114565b9150509250929050565b61125e80620001826000396000f3fe6080604052600436106100865760003560e01c806382fde0931161005957806382fde0931461015d5780638a9cfd5514610188578063937e09b1146101b1578063d7bb99ba146101dc578063d7d1bbdb146101e657610086565b8063034410061461008b5780630a144391146100b4578063481c6a75146100f157806381d12c581461011c575b600080fd5b34801561009757600080fd5b506100b260048036038101906100ad9190610a39565b61020f565b005b3480156100c057600080fd5b506100db60048036038101906100d69190610ac4565b610477565b6040516100e89190610b0c565b60405180910390f35b3480156100fd57600080fd5b50610106610497565b6040516101139190610b36565b60405180910390f35b34801561012857600080fd5b50610143600480360381019061013e9190610a39565b6104bb565b604051610154959493929190610bf9565b60405180910390f35b34801561016957600080fd5b506101726105b6565b60405161017f9190610c53565b60405180910390f35b34801561019457600080fd5b506101af60048036038101906101aa9190610da3565b6105bc565b005b3480156101bd57600080fd5b506101c66106ca565b6040516101d39190610c53565b60405180910390f35b6101e46106d0565b005b3480156101f257600080fd5b5061020d60048036038101906102089190610a39565b610786565b005b60008054906101000a900473ffffffffffffffffffffffffffffffffffffffff1673ffffffffffffffffffffffffffffffffffffffff163373ffffffffffffffffffffffffffffffffffffffff161461026757600080fd5b6003818154811061027b5761027a610e12565b5b906000526020600020906005020160020160149054906101000a900460ff16156102da576040517f08c379a00000000000000000000000000000000000000000000000000000000081526004016102d190610e8d565b60405180910390fd5b60026004546102e99190610f0b565b600382815481106102fd576102fc610e12565b5b9060005260206000209060050201600301541161031957600080fd5b60016003828154811061032f5761032e610e12565b5b906000526020600020906005020160020160146101000a81548160ff02191690831515021790555060006003828154811061036d5761036c610e12565b5b906000526020600020906005020160020160009054906101000a900473ffffffffffffffffffffffffffffffffffffffff16905060008173ffffffffffffffffffffffffffffffffffffffff16600384815481106103ce576103cd610e12565b5b9060005260206000209060050201600101546040516103ec90610f6d565b60006040518083038185875af1925050503d8060008114610429576040519150601f19603f3d011682016040523d82523d6000602084013e61042e565b606091505b5050905080610472576040517f08c379a000000000000000000000000000000000000000000000000000000000815260040161046990610ff4565b60405180910390fd5b505050565b60026020528060005260406000206000915054906101000a900460ff1681565b60008054906101000a900473ffffffffffffffffffffffffffffffffffffffff1681565b600381815481106104cb57600080fd5b90600052602060002090600502016000915090508060000180546104ee90611043565b80601f016020809104026020016040519081016040528092919081815260200182805461051a90611043565b80156105675780601f1061053c57610100808354040283529160200191610567565b820191906000526020600020905b81548152906001019060200180831161054a57829003601f168201915b5050505050908060010154908060020160009054906101000a900473ffffffffffffffffffffffffffffffffffffffff16908060020160149054906101000a900460ff16908060030154905085565b60045481565b60008054906101000a900473ffffffffffffffffffffffffffffffffffffffff1673ffffffffffffffffffffffffffffffffffffffff163373ffffffffffffffffffffffffffffffffffffffff161461061457600080fd5b6000600360018160018154018082558091505003906000526020600020906005020190508381600001908051906020019061065092919061094c565b50828160010181905550818160020160006101000a81548173ffffffffffffffffffffffffffffffffffffffff021916908373ffffffffffffffffffffffffffffffffffffffff16021790555060008160020160146101000a81548160ff0219169083151502179055506000816003018190555050505050565b60015481565b6001543411610714576040517f08c379a000000000000000000000000000000000000000000000000000000000815260040161070b906110c1565b60405180910390fd5b6001600260003373ffffffffffffffffffffffffffffffffffffffff1673ffffffffffffffffffffffffffffffffffffffff16815260200190815260200160002060006101000a81548160ff0219169083151502179055506004600081548092919061077f906110e1565b9190505550565b60006003828154811061079c5761079b610e12565b5b9060005260206000209060050201905060011515600260003373ffffffffffffffffffffffffffffffffffffffff1673ffffffffffffffffffffffffffffffffffffffff16815260200190815260200160002060009054906101000a900460ff1615151461083f576040517f08c379a000000000000000000000000000000000000000000000000000000000815260040161083690611176565b60405180910390fd5b600015158160040160003373ffffffffffffffffffffffffffffffffffffffff1673ffffffffffffffffffffffffffffffffffffffff16815260200190815260200160002060009054906101000a900460ff161515146108d4576040517f08c379a00000000000000000000000000000000000000000000000000000000081526004016108cb90611208565b60405180910390fd5b60018160040160003373ffffffffffffffffffffffffffffffffffffffff1673ffffffffffffffffffffffffffffffffffffffff16815260200190815260200160002060006101000a81548160ff021916908315150217905550806003016000815480929190610943906110e1565b91905055505050565b82805461095890611043565b90600052602060002090601f01602090048101928261097a57600085556109c1565b82601f1061099357805160ff19168380011785556109c1565b828001600101855582156109c1579182015b828111156109c05782518255916020019190600101906109a5565b5b5090506109ce91906109d2565b5090565b5b808211156109eb5760008160009055506001016109d3565b5090565b6000604051905090565b600080fd5b600080fd5b6000819050919050565b610a1681610a03565b8114610a2157600080fd5b50565b600081359050610a3381610a0d565b92915050565b600060208284031215610a4f57610a4e6109f9565b5b6000610a5d84828501610a24565b91505092915050565b600073ffffffffffffffffffffffffffffffffffffffff82169050919050565b6000610a9182610a66565b9050919050565b610aa181610a86565b8114610aac57600080fd5b50565b600081359050610abe81610a98565b92915050565b600060208284031215610ada57610ad96109f9565b5b6000610ae884828501610aaf565b91505092915050565b60008115159050919050565b610b0681610af1565b82525050565b6000602082019050610b216000830184610afd565b92915050565b610b3081610a86565b82525050565b6000602082019050610b4b6000830184610b27565b92915050565b600081519050919050565b600082825260208201905092915050565b60005b83811015610b8b578082015181840152602081019050610b70565b83811115610b9a576000848401525b50505050565b6000601f19601f8301169050919050565b6000610bbc82610b51565b610bc68185610b5c565b9350610bd6818560208601610b6d565b610bdf81610ba0565b840191505092915050565b610bf381610a03565b82525050565b600060a0820190508181036000830152610c138188610bb1565b9050610c226020830187610bea565b610c2f6040830186610b27565b610c3c6060830185610afd565b610c496080830184610bea565b9695505050505050565b6000602082019050610c686000830184610bea565b92915050565b600080fd5b600080fd5b7f4e487b7100000000000000000000000000000000000000000000000000000000600052604160045260246000fd5b610cb082610ba0565b810181811067ffffffffffffffff82111715610ccf57610cce610c78565b5b80604052505050565b6000610ce26109ef565b9050610cee8282610ca7565b919050565b600067ffffffffffffffff821115610d0e57610d0d610c78565b5b610d1782610ba0565b9050602081019050919050565b82818337600083830152505050565b6000610d46610d4184610cf3565b610cd8565b905082815260208101848484011115610d6257610d61610c73565b5b610d6d848285610d24565b509392505050565b600082601f830112610d8a57610d89610c6e565b5b8135610d9a848260208601610d33565b91505092915050565b600080600060608486031215610dbc57610dbb6109f9565b5b600084013567ffffffffffffffff811115610dda57610dd96109fe565b5b610de686828701610d75565b9350506020610df786828701610a24565b9250506040610e0886828701610aaf565b9150509250925092565b7f4e487b7100000000000000000000000000000000000000000000000000000000600052603260045260246000fd5b7f5265717565737420697320616c726561647920636f6d706c6574656400000000600082015250565b6000610e77601c83610b5c565b9150610e8282610e41565b602082019050919050565b60006020820190508181036000830152610ea681610e6a565b9050919050565b7f4e487b7100000000000000000000000000000000000000000000000000000000600052601260045260246000fd5b7f4e487b7100000000000000000000000000000000000000000000000000000000600052601160045260246000fd5b6000610f1682610a03565b9150610f2183610a03565b925082610f3157610f30610ead565b5b828204905092915050565b600081905092915050565b50565b6000610f57600083610f3c565b9150610f6282610f47565b600082019050919050565b6000610f7882610f4a565b9150819050919050565b7f43616e6e6f742073656e6420657468657220746f20676976656e20616464726560008201527f7373210000000000000000000000000000000000000000000000000000000000602082015250565b6000610fde602383610b5c565b9150610fe982610f82565b604082019050919050565b6000602082019050818103600083015261100d81610fd1565b9050919050565b7f4e487b7100000000000000000000000000000000000000000000000000000000600052602260045260246000fd5b6000600282049050600182168061105b57607f821691505b6020821081141561106f5761106e611014565b5b50919050565b7f436f6e747269627574696f6e2062656c6f77206d696e696d756d000000000000600082015250565b60006110ab601a83610b5c565b91506110b682611075565b602082019050919050565b600060208201905081810360008301526110da8161109e565b9050919050565b60006110ec82610a03565b91507fffffffffffffffffffffffffffffffffffffffffffffffffffffffffffffffff82141561111f5761111e610edc565b5b600182019050919050565b7f53656e646572206e6f74206261636b6572206f662063616d706169676e000000600082015250565b6000611160601d83610b5c565b915061116b8261112a565b602082019050919050565b6000602082019050818103600083015261118f81611153565b9050919050565b7f53656e64657220616c726561647920617070726f76656420746869732072657160008201527f7565737400000000000000000000000000000000000000000000000000000000602082015250565b60006111f2602483610b5c565b91506111fd82611196565b604082019050919050565b60006020820190508181036000830152611221816111e5565b905091905056fea264697066735822122091d9d3656a297887908c6325d89871f41198dc7e3cd9a7f3da0766a92a97941a64736f6c634300080a0033a26469706673582212201c3eabc916075945b652f917f9df2ea0a91b5fc9b0ad10780ff4a95eda88607b64736f6c634300080a0033",
  "immutableReferences": {},
  "source": "// SPDX-License-Identifier: MIT\npragma solidity >=0.4.22 <0.9.0;\n\nimport \"./Campaign.sol\";\n\ncontract CampaignFactory {\n  address[] public deployedCampaign;\n\n  constructor() {\n\n  }\n\n  function createCampaign(uint minContribution) public {\n    address newCampaign = address(new Campaign(msg.sender, minContribution));\n    deployedCampaign.push(newCampaign);\n  }\n\n  function getDeployedCampaigns() public view returns (address[] memory) {\n    return deployedCampaign;\n  }\n}\n",
  "sourcePath": "/home/linh/Documents/Solidity/kickstarter/contracts/CampaignFactory.sol",
  "compiler": {
    "name": "solc",
    "version": "0.8.10+commit.fc410830.Emscripten.clang"
  },
  "schemaVersion": "3.4.3",
  "updatedAt": "2022-02-20T05:26:18.153Z",
  "networkType": "ethereum",
  "devdoc": {
    "kind": "dev",
    "methods": {},
    "version": 1
  },
  "userdoc": {
    "kind": "user",
    "methods": {},
    "version": 1
  }
}